{
  "contractName": "Server",
  "abi": [
    {
      "constant": true,
      "inputs": [],
      "name": "vidCount",
      "outputs": [
        {
          "name": "",
          "type": "uint256"
        }
      ],
      "payable": false,
      "stateMutability": "view",
      "type": "function",
      "signature": "0x86b9321c"
    }
  ],
  "bytecode": "0x608060405260008055348015601357600080fd5b50609e806100226000396000f3fe608060405260043610603f576000357c0100000000000000000000000000000000000000000000000000000000900463ffffffff16806386b9321c146044575b600080fd5b348015604f57600080fd5b506056606c565b6040518082815260200191505060405180910390f35b6000548156fea165627a7a723058200a83943d4aa3916c8a3faa0a46e9bca25994c24c16bfa8825bbaa8d8bb6d675d0029",
  "source": "pragma solidity >=0.4.0 <0.7.0;\n\ncontract Server{\n\tuint public vidCount = 0;\n\n\n\n}",
  "sourcePath": "/Users/andreipetre/Docs/facultate/Licenta/VSapp/blockchain/contracts/Server.sol",
  "compiler": {
    "name": "solc",
    "version": "0.5.0+commit.1d4f565a.Emscripten.clang"
  },
  "schemaVersion": "3.0.1",
  "updatedAt": "2022-04-23T12:59:48.604Z",
  "devdoc": {
    "methods": {}
  },
  "userdoc": {
    "methods": {}
  }
}